:020000040000FA
:100000000A128A11F02F0728052806280000003060
:100010000A128A151A250A128A118039031D11281D
:10002000122804280800363084000C30FF008313A7
:100030008001840AFF0B1728413083120313B50097
:100040003508C200B41F252826283B282D300A1267
:100050008A1123210A128A11013083120313C2026A
:10006000B109B209B309B409B10A0319B20A0319F3
:10007000B30A0319B40A0030F3000030F200003074
:10008000F1000A30F0003408F7003308F6003208B7
:10009000F5003108F4000A128A156E240A128A113A
:1000A0007008303E83120313B5000130C2024208CB
:1000B00084003508831380003630B50042083502CD
:1000C0000318632864288B280030F3000030F20006
:1000D0000030F1000A30F0003408F7003308F60071
:1000E0003208F5003108F4000A128A15CC250A12EC
:1000F0008A11730883120313B4007208B3007108E5
:10010000B2007008B1003408330432043104031D16
:100110008A288B283B284208AD000030AE000A1226
:100120008A1521230A128A110800C730831203138B
:100130009F050D3083120313C600FB30C500C50BAD
:100140009F28C60B9F28831203131F15AF281E0874
:10015000DE00831603131E0883120313DD001F192C
:10016000B228B328A7285D08F0005E08F10000302F
:10017000F11BFF30F200F30001300A128A11BD2199
:100180000A128A11730883120313A7007208A600CB
:100190007108A5007008A4004030A3000230A2003E
:1001A000F130A100AA30A0000A128A1113260A1207
:1001B0008A11831203132308BD002208BC00210802
:1001C000BB002008BA000A128A1584270A128A1175
:1001D000831203133B08DC003A08DB005C085A0674
:1001E000031DF4285B0859060319F728F828142979
:1001F00005300A128A1509270A128A11831203137D
:100200005B08B1005C08B2000030B21BFF30B300E5
:10021000B4000A128A1113200A128A1183120313DE
:100220005C08DA005B08D900023083120313C700B0
:100230004530C600A930C500C50B1C29C60B1C29BA
:10024000C70B1C29080083120313A6006319292970
:100250002A2938296008A200A301A21BA3032208AF
:10026000FF3EA70023080318013EFF3EA8004129D6
:1002700001305F07A700A8010318A80ADF1F412962
:10028000A803831203136208A200A301A21BA30305
:1002900028082306031D4E2927082206031D51297D
:1002A00052295329BC292608A2002208F400013053
:1002B0000A128A1573250A128A1183120313631D09
:1002C0006229632984296208A200A301A21BA30357
:1002D0000F306107A400A5010318A50AE11F7129C9
:1002E000A5038312031323082506031D7929220879
:1002F0002406031D7C297D29842901300A128A15D0
:10030000B8230A128A119429631987298829942904
:1003100062086106031D8D298E29942901300A1275
:100320008A154F230A128A1183120313631999291C
:100330009A299F29FF30A900FF30AA00A329013084
:10034000A9000030AA002908A2002208E207E31C45
:10035000AA29AB29BC296319AE29AF29B429FF30DA
:10036000AB00FF30AC00B8290130AB000030AC006E
:100370002B08A2002208E1070800F80078080319FA
:10038000C229C329D729F31FC629C729D72970092C
:10039000FA007109FB007209FC007309FD00FA0AFA
:1003A0000319FB0A0319FC0A0319FD0ADF29730864
:1003B000FD007208FC007108FB007008FA00730869
:1003C000720471047004031DE629E729F029003046
:1003D000F3000030F2000030F1000030F000762A27
:1003E0009630F4007408F900022A0130F400740811
:1003F000F90701300310FD0CFC0CFB0CFA0CFF3E5E
:10040000031DFA29FE307D05031D072A082AF52958
:10041000242A0130F4007408F9070130FA0700308B
:1004200003180130FB07003003180130FC070030CF
:1004300003180130FD0701300310FD0CFC0CFB0C10
:10044000FA0CFF3E031D1C2AFF307D05031D292ADF
:100450002A2A092A362A0130F9020130F400031051
:10046000FA0DFB0DFC0DFD0DF40B2F2AFC1B392A98
:100470003A2A402A0230790203183F2A402A2B2ABE
:100480007918432A442A4C2AFF30FA05FF30FB052D
:100490007F30FC05FF30FD050310F90C7908F400EE
:1004A000F501F601F70118300310F40DF50DF60D06
:1004B000F70DFF3E031D542A7408FA047508FB0467
:1004C0007608FC047708FD0478080319682A692A6D
:1004D0006E2AF31F6C2A6D2A6E2AFD177D08F30021
:1004E0007C08F2007B08F1007A08F0000800831213
:1004F0000313A7001F30A2002208831603138805E8
:10050000831203132708031D862A882A0130892AAB
:100510000030A2002208A7002108031D902A922A79
:100520000130932A0030A2002208A1000F30A2005F
:1005300022088316031386058312031308138813F6
:10054000A12AA22A0000831203138816A72AA82A28
:1005500000008312031306080F3920388600B02AE2
:10056000B12A0000831203138812B62AB72A0000AA
:10057000023083120313A4000430A300B930A20098
:10058000A20BC02AA30BC02AA40BC02AC72AC82AC0
:10059000C92A0000831203138816CE2ACF2A00002E
:1005A0008312031306080F3920388600D72AD82A69
:1005B0000000831203138812DD2ADE2A00000230B5
:1005C00083120313A4000430A300B930A200A20BCD
:1005D000E72AA30BE72AA40BE72AEE2A83120313C8
:1005E0002708A2002208F8002108A3002308F90028
:1005F00000300A128A1527240A128A11F801F9011B
:1006000000300A128A1582230A128A110A128A15E8
:1006100083220A128A11F80101300A128A15CC22AB
:100620000A128A11F801F80AF901F90A01300A12CE
:100630008A1582230A128A11213083120313A30020
:100640007530A200A20B222BA30B222B272B831287
:100650000313E001E3192D2B2E2B332B4F30A50074
:100660000030A600372B2730A5000030A600250853
:10067000A2002208DF00080083120313B600031053
:10068000631903140030031801305F07A300A401AD
:100690000318A40ADF1F4D2BA4038312031322089F
:1006A000A500A601A51BA6032608803AA7002408DA
:1006B000803A2702031D5E2B23082502031C612BB1
:1006C000622B732B0310831203136319031400307E
:1006D000031801305F07AA00AB010318AB0ADF1F44
:1006E000722BAB037A2B831203132208AA00AB01EF
:1006F000AA1BAB03831203133608031D802B812B27
:10070000842BAC01AD01882B4030AC000030AD0033
:100710002A082C070A128A15EF230A128A1183125B
:100720000313E319942B952B982BAE01AF01A52B46
:100730003608031D9C2B9E2B01309F2B0030A300FD
:10074000A4012308AE002408AF0063102E1CA92BBF
:100750006314831203132208A300A401A31BA403A0
:100760006008A500A601A51BA6030310631D0314C2
:100770000030031801302502A7002608031C2603B9
:10078000A8002808803AA9002408803A2902031DFD
:10079000CB2B23082702031CCE2BCF2BE32B83125A
:1007A00003136008A300A401A31BA4030310631D8B
:1007B00003140030031801302302B2002408031C84
:1007C0002403B300EA2B831203132208B200B301FF
:1007D000B21BB30303106319031400300318013074
:1007E0005F07A300A4010318A40ADF1FF82BA403CA
:1007F000831203133308803AA5002408803A2502A7
:10080000031D042C23083202031C072C082C192C6E
:10081000031083120313631903140030031801300B
:100820005F07B000B1010318B10ADF1F182CB10334
:100830005E2C831203132208A300A401A31BA403AC
:100840006008A500A601A51BA6030310631D0314E1
:100850000030031801302502A7002608031C2603D8
:10086000A8002808803AA9002408803A2902031D1C
:100870003B2C23082702031C3E2C3F2C532C8312B5
:1008800003136008A300A401A31BA4030310631DAA
:1008900003140030031801302302B4002408031CA1
:1008A0002403B5005A2C831203132208B400B501A7
:1008B000B41BB5033508B1003408B000831203132C
:1008C0003008A3002308E2006208803AA300610810
:1008D000803AA30203186D2C6E2C762C62086102FC
:1008E0000A128A154F230A128A119D2C6208A3004E
:1008F000A401A31BA4030F306107A500A6010318E0
:10090000A60AE11F842CA603831203132608803A4B
:10091000A7002408803A2702031D902C23082502F3
:100920000318932C942C9D2C8312031361086202EC
:100930000A128A15B8230A128A11080083160313B3
:1009400081170130850089018801870186018312A2
:10095000031389018801870186018501C1309F0049
:100960008E30831603139F008312031392010A1221
:100970008A156E220A128A1183120313910112152D
:10098000A10101300A128A1177220A128A118312F8
:100990000313A20100300A128A113C230A128A11A1
:1009A000013083120313AD008030AE000A128A15A5
:1009B00021230A128A11043083120313C800480845
:1009C000A20001300A128A113C230A128A111D303A
:1009D00083120313AD008030AE000A128A15212362
:1009E0000A128A1183120313A20101300A128A111A
:1009F0003C230A128A118312031388150A128A11E2
:100A000095200A128A11831203135C08803AFF00B2
:100A100080307F02031D0E2D33305B02031C112D2D
:100A2000122D392D8312031308146430F6000030A0
:100A3000F700831603131208013EF000003003187C
:100A40000130F1006330F2000030F3000A128A1521
:100A5000A7220A128A117108F9007008F8000A1218
:100A60008A1532260A128A1176088312031395001A
:100A7000CA2D831203135C08803AFF0080307F0286
:100A8000031D442D28305B02031C472D482D6F2D7C
:100A90008312031308146430F6000030F700831645
:100AA00003131208013EF000003003180130F1007A
:100AB0004230F2000030F3000A128A15A7220A120F
:100AC0008A117108F9007008F8000A128A15322696
:100AD0000A128A117608831203139500CA2D831215
:100AE00003135C08803AFF0080307F02031D7A2DDB
:100AF0001E305B02031C7D2D7E2DA52D831203135A
:100B000008146430F6000030F7008316031312084F
:100B1000013EF000003003180130F1002130F200F6
:100B20000030F3000A128A15A7220A128A117108EE
:100B3000F9007008F8000A128A1532260A128A1182
:100B40007608831203139500CA2D8312031308102D
:100B50006430F6000030F700831603131208013EDC
:100B6000F000003003180130F1000030F200F30013
:100B70000A128A15A7220A128A117108F900700850
:100B8000F8000A128A1532260A128A117608831290
:100B9000031395005C08803AFF0080307F02031D3C
:100BA000D32D37305B02031CD62DD72DFE2C83129C
:100BB000031388140A30C9000030CA00E42D0A1259
:100BC0008A1195200A128A11FF3083120313C90774
:100BD0000318CA0AFF30CA07490A031DF32D4A0A3F
:100BE000031DF32DF42DDF2D88100A30CB000030CB
:100BF000CC00FF2D0A128A1195200A128A11FF30AB
:100C000083120313CB070318CC0AFF30CC074B0A1F
:100C1000031D0E2E4C0A031D0E2E0F2EFA2DFE2C38
:100C20000A128A1100288312031327088039A800AA
:100C30002808B1002708A8002807A9002908B8003B
:100C4000A61F232E242E252E381438080319292EEA
:100C50002A2E3A2E380A031D2E2E2F2E372E003024
:100C6000A7000030A6000030A5000030A400A617A1
:100C7000A701422E0030A7000030A6000030A500DA
:100C80000030A40023088039A8002808B1062308F2
:100C9000A8002807A9002908B900A21F502E512E2C
:100CA000522E391439080319562E572E672E390A39
:100CB000031D5B2E5C2E642E0030A3000030A200CA
:100CC0000030A1000030A000A217A3016F2E003059
:100CD000A3000030A2000030A1000030A0002308D3
:100CE000220421042004031D762E772E902E00303E
:100CF000A7000030A6000030A5000030A40080301E
:100D0000A6047F30A7043108A8002808A7042708F4
:100D1000A3002608A2002508A1002408A000EF2FA8
:100D20003808031D942E952E9E2E0030A30000300F
:100D3000A2000030A1000030A000EF2F3808A8006A
:100D4000A9012908AB0039082802AA00031CAB033B
:100D50002A087F3EB2002B080318013E003EB30074
:100D60002708B0002608AF002508AE002408AD0013
:100D70000030A7000030A6000030A5000030A4001D
:100D80000030B7000030B6000030B5000030B400CD
:100D9000B901142F39080319CE2ECF2EEF2E0130B2
:100DA000A8000310AD0DAE0DAF0DB00DA80BD12EE8
:100DB0000130A8000310A40DA50DA60DA70DA80BCA
:100DC000DA2EB71FE42EE52EE62E24140130A800FB
:100DD0000310B40DB50DB60DB70DA80BE82E230802
:100DE0003002031DFD2E22082F02031DFD2E2108B7
:100DF0002E02031DFD2E20082D02031C002F012FA3
:100E0000102F37172008AD022108031C210FAE0256
:100E10002208031C220FAF022308031C230FB00279
:100E20000130A8002808B9071A303902031C192F0D
:100E30001A2FCA2E30082F042E042D040319212F37
:100E4000222F412F3414412F0130A8000310A40D8C
:100E5000A50DA60DA70DA80B262FB71F302F312FDC
:100E6000322F24140130A8000310B40DB50DB60DB7
:100E7000B70DA80B342FFF30B2070318B30AFF30A9
:100E8000B307A61F442F452F242FB901B71F492FA1
:100E90004A2F662FFF303405A800FF303505A90022
:100EA000FF303605AA007F303705AB002B082A0437
:100EB0002904280403195D2F5E2F612FB901B90A97
:100EC000662F241C642F652F662F5E2F39080319A7
:100ED0006A2F6B2F9C2F0130A407003003180130BC
:100EE000A507003003180130A607003003180130B1
:100EF000A707271C7C2F7D2F9C2F2408A8002508DE
:100F0000A9002608AA002708AB000130AC002B0D71
:100F1000AB0CAA0CA90CA80CAC0B872F2B08A700B4
:100F20002A08A6002908A5002808A4000130B20755
:100F30000318B30A0030B3073308803AFF0080304B
:100F40007F02031DA52FFF303202031CA82FA92FFB
:100F5000B72FFF3083120313B2000030B30000300C
:100F6000A7000030A6000030A5000030A4008312C6
:100F700003133308803AFF0080307F02031DC22F25
:100F8000013032020318C52FC62FD32F831203134B
:100F9000B201B3010030A7000030A6000030A50068
:100FA0000030A400B101831203133208A8002808FE
:100FB000B800381CDC2FDD2FDF2FA617E32F7F3082
:100FC000A8002808A6053808A8000310280CA900C6
:100FD0002908A7003108A8002808A704872E0800C0
:100FE00083120313E30183134D30840063300A122C
:100FF0008A1566220A128A1183010A128A119E2C0E
:10100000FF1B0A2883137F1883170008840A03191B
:10101000FF0A080008308A000408840A82070034A6
:10102000543465346D3470346534723461347434DE
:101030007534723465342034693473343A3420346E
:10104000003425342E3431343634733400342534AE
:101050002E342A3466340034B0344334203400341F
:1014CC0064008001840A0406031900340406672AA8
:1014DC00FF30831603139200831203131712971213
:1014EC009501831603130711FC3083120313920525
:1014FC001708F0390C3897000800F401F40A003092
:10150C000A128A1573250A128A150A128A110320E7
:10151C000A128A1583120313E101E2016310621CA3
:10152C00982A6314003083120313E3180130F80077
:10153C000030631901300A128A15CC220A128A155E
:10154C000800F401F501701CAC2AAD2AB32A72080C
:10155C00F4070318F50A7308F50701300310F20DB0
:10156C00F30DFF3E031DB42A01300310F10CF00CF7
:10157C00FF3E031DBB2A70087104031DC62AC72A2F
:10158C00A92A7508F1007408F0000800FC007C081A
:10159C000139831203136311031D63157808013994
:1015AC00E310031DE3147808031DDD2ADF2A013044
:1015BC00E02A0030F9007C08031DE52AE72A0130F7
:1015CC00E82A0030FA007A0779040438FB007B081B
:1015DC00F40000300A128A1573250A128A150800C5
:1015EC00FC007808031DFB2AFD2A0130FE2A00307E
:1015FC00F90002300310F90DFF3E031D002B7C088F
:10160C00031D092B0B2B01300C2B0030FA00023080
:10161C000310FA0DFF3E031D0E2B03107A0D7904F7
:10162C001038FB007B08F40000300A128A15732571
:10163C000A128A150800831203132D08AF002E0816
:10164C00B0003E2B3008FF002F0884000A128A15C8
:10165C0000200A128A150A128A1123210A128A15ED
:10166C00013083120313AF070318B00A0030B00720
:10167C003008FF002F0884000A128A1500200A1275
:10168C008A15003A031D4B2B4C2B282B2D082F02AF
:10169C00080083120313A0005B2BF801F80A013039
:1016AC000A128A15F6220A128A15FF30FD007D08EF
:1016BC0083120313A007200A0319652B662B732BC7
:1016CC006008803AFD00FF30E10701306107803A85
:1016DC00FD02031C722B732B532B6108803AFD0007
:1016EC006008803AFD0203187C2B7D2B812B60084F
:1016FC00FD007D08E100080083120313A0007908A7
:10170C00031D892B8B2B01308C2B0030FA007808B1
:10171C00031D912B932B0130942B0030FB000130D7
:10172C000310FB0DFF3E031D962B2008031D9F2B62
:10173C00A12B0130A22B0030FC0001300310FC0D5A
:10174C00FF3E031DA42B03107C0D7B047A04083888
:10175C00FD007D08F40000300A128A1573250A1268
:10176C008A15080083120313A0005F08F13EFD00E8
:10177C007D08A100C82BF80101300A128A15F62247
:10178C000A128A15FF30FD007D0883120313A0078F
:10179C00200A0319D22BD32BE02B0130E107FF30A9
:1017AC006107803AFD002108803AFD02031CDF2B03
:1017BC00E02BC12B2108803AFD006108803AFD0224
:1017CC000318E92BEA2BEE2B2108FD007D08E10024
:1017DC000800FD0083120313E31DF52BF62BFB2BE6
:1017EC006730FB000030FC00FF2B4F30FB0000305B
:1017FC00FC000310631903140030031801307B073D
:10180C00F8007C0803187C0AF9007908803AFA0081
:10181C0080307A02031D142C7D087802031C172CCF
:10182C00182C262C8312031363127D088038F800C1
:10183C007808F40000300A128A1573250A128A15EA
:10184C00080083120313A0007908031D2E2C302CE2
:10185C000130312C0030FA0002300310FA0DFF3E3B
:10186C00031D332C7808031D3C2C3E2C01303F2CDF
:10187C000030FB0003300310FB0DFF3E031D412C19
:10188C002008031D4A2C4C2C01304D2C0030FC0040
:10189C0003300310FC0DFF3E031D4F2C03107C0D79
:1018AC007B047A042038FD007D08F40000300A1215
:1018BC008A1573250A128A157808031D662C6A2C62
:1018CC0083120313E3156D2C83120313E311080029
:1018DC0073087204710470040319752C762CB92CDE
:1018EC00F901F90A862C0130F8000310F00DF10D06
:1018FC00F20DF30DF80B7B2C0130F8007808F9078A
:10190C00F31F892C8A2C792C73087702031D982CD1
:10191C0072087602031D982C71087502031D982C11
:10192C0070087402031C9B2C9C2CAA2C7008F402CB
:10193C007108031C710FF5027208031C720FF6027A
:10194C007308031C730FF70201300310F30CF20C35
:10195C00F10CF00CFF3E031DAB2C0130F902031D02
:10196C00B82CB92C8A2C7708F3007608F20075088D
:10197C00F1007408F000080083120313A200F42C89
:10198C00F80100300A128A15F6220A128A158312FF
:10199C00031362086106031DD42CD52CE92C0130ED
:1019AC000A128A154F230A128A15E92CF801003005
:1019BC000A128A15F6220A128A1501300A128A15A1
:1019CC004F230A128A15FF3083120313A10021083A
:1019DC00A207220A031DF32CF42CDC2CFF30A207E7
:1019EC0001302207803A7F3E031CFD2CFE2C0B2D70
:1019FC006008803AA100FF30E20701306207803AAC
:101A0C00A102031C0A2D0B2DC62C6208803AA100E2
:101A1C006008803AA1020318142D152D192D6008A9
:101A2C00A1002108E2000800F200F030F00070087C
:101A3C0083160313860472080319252D262D342DC5
:101A4C00831203130817081B2C2D302D831203133C
:101A5C008817332D831203138813382D8312031325
:101A6C0088130817392D3A2D00008312031388169A
:101A7C003F2D402D0000831203130608F039F000AF
:101A8C007008F300492D4A2D0000831203138812AD
:101A9C004F2D502D0000522D532D00008312031397
:101AAC008816582D592D0000831203130608F000D8
:101ABC0004300310F00CFF3E031D5F2D7008F10085
:101ACC007108F304692D6A2D000083120313881228
:101ADC006F2D702D000073080800F7000F30F50013
:101AEC007508831603138605770803197E2D7F2D41
:101AFC00842D8312031388170813882D8312031364
:101B0C0008138813892D8A2D00008312031388165D
:101B1C008F2D902D00000F30831203130605F50056
:101B2C007408F039750486009B2D9C2D00008312DF
:101B3C0003138812A12DA22D0000A42DA52D0000A9
:101B4C00831203138816AA2DAB2D00000F308312BD
:101B5C0003130605F5007408F60003300310F60DA8
:101B6C00FF3E031DB42D0310760D75048600BE2DAB
:101B7C00BF2D0000831203138812C42DC52D000045
:101B8C000A128A1103200A128A1508000030FC0080
:101B9C000030FB000030FA000030F90073087204CA
:101BAC00710470040319DB2DDC2D292EFD01FD0AB7
:101BBC00EC2D0130F8000310F00DF10DF20DF30DCA
:101BCC00F80BE12D0130F8007808FD07F31FEF2D1D
:101BDC00F02DDF2D0130F8000310F90DFA0DFB0D7F
:101BEC00FC0DF80BF22D73087702031D072E7208FB
:101BFC007602031D072E71087502031D072E70084F
:101C0C007402031C0A2E0B2E1A2E7008F402710893
:101C1C00031C710FF5027208031C720FF602730895
:101C2C00031C730FF702791401300310F30CF20C40
:101C3C00F10CF00CFF3E031D1B2E0130FD02031DA9
:101C4C00282E292EF02D7C08F3007B08F2007A0850
:101C5C00F1007908F000080083120313A101F71FAB
:101C6C00382E392E402EF609F709F60A0319F70A11
:101C7C00A101A10AF91F432E442E4D2EF809F90992
:101C8C00F80A0319F90A0130FA007A08A106A20130
:101C9C00A301760877040319542E552E8C2EA0011F
:101CAC00A00A632E01300310F60DF70DFF3E031D45
:101CBC00592E0130FA007A08A007F71F662E672EFE
:101CCC00582E01300310A20DA30DFF3E031D682EEC
:101CDC0077087902031D742E76087802031C772E80
:101CEC00782E7F2E7608F8027708031CF903F90288
:101CFC00221401300310F70CF60CFF3E031D802E4E
:101D0C000130A002031D8B2E8C2E672E2108031987
:101D1C00902E912E962EA209A309A20A0319A30AAA
:101D2C002308F7002208F600080083120313A6000C
:101D3C00E32EF801F80A00300A128A15F6220A126C
:101D4C008A15831203136208A200A301A21BA3032A
:101D5C000F306107A400A5010318A50AE11FB72ED7
:101D6C00A5038312031323082506031DBF2E220887
:101D7C002406031DC22EC32ED82E01300A128A153A
:101D8C00B8230A128A15D82EF801F80A00300A1264
:101D9C008A15F6220A128A1501300A128A15B823FE
:101DAC000A128A15FF3083120313A2002208A60719
:101DBC00260A031DE22EE32ECA2EFF30A6070130A1
:101DCC002607803A7F3E031CEC2EED2EFA2E0130B6
:101DDC00E207FF306207803AA2005F08803AA20255
:101DEC00031CF92EFA2E9F2E5F08803AA20062087F
:101DFC00803AA2020318032F042F082F5F08A200B9
:101E0C002208E200080083120313AF0063190F2F9E
:101E1C00102F1A2F01305F07B000B1010318B10A5F
:101E2C00DF1F192FB103272F6008AD00AE01AD1BCA
:101E3C00AE032D08FF3EB0002E080318013EFF3EF6
:101E4C00B100831203133008AD002D08B200631DDE
:101E5C00302F312F382F01300A128A15C2240A1262
:101E6C008A153E2F01300A128A159B260A128A15F2
:101E7C00F801031083120313631D031400300318BD
:101E8C0001300A128A15CC220A128A15532F2030DF
:101E9C000A128A1123210A128A15FF3083120313A6
:101EAC00AD002D08AF072F0A03195D2F5E2F642F8D
:101EBC0062083206031D632F642F4D2FF8010310A7
:101ECC00631D03140030031801300A128A15CC224A
:101EDC000A128A1583120313631D752F762F7D2F1B
:101EEC0001300A128A159B260A128A15832F01309B
:101EFC000A128A15C2240A128A15080003108312CA
:101F0C0003133C0D3D0DBE003E08C4004408031DE8
:101F1C00902F912F9A2F0030BD000030BC00003064
:101F2C00BB000030BA00FF2F3A08BE003B08BF00D0
:101F3C003C08C0003D08C1001F300310C10CC00C90
:101F4C00BF0CBE0CFF3E031DA32F3E08C20042086F
:101F5C00C300BC17FF30BA05FF30BB05FF30BC0512
:101F6C000030BD059630C402C41FBD2FBE2FD82F24
:101F7C004408803A973E0318C42FC52FC62F912FC3
:101F8C0001300310BD0CBC0CBB0CBA0CFF3E031D86
:101F9C00C72F0130BE003E08C407031DD62FD72F14
:101FAC00C62FEF2F20304402031CDD2FDE2FEA2F2B
:101FBC00912F0130BE000310BA0DBB0DBC0DBD0D31
:101FCC00BE0BE12F0130C4024408031DEE2FEF2F8E
:101FDC00DF2F43080319F32FF42FFF2FBA09BB0986
:101FEC00BC09BD09BA0A0319BB0A0319BC0A0319B7
:041FFC00BD0A080012
:02400E007A3FF7
:00000001FF
